:0400000080312E28F5
:100008007E1480310B1F09280A282C282100111E74
:100018000E280F281B282000111E132814281B281F
:10002800210045088A0044080A0080312C28210054
:10003800911E1F2820282C282000911E24282528BE
:100048002C28210043088A0042080A0080312C2805
:100058007E10090080313028FC01673084000030B0
:10006800850009308431CE248031A03084000030EE
:10007800850046308431CE2480317E1020008431C2
:10008800302C2000BB006808803AB8008030380265
:10009800031D5028013067020318532854285A2892
:1000A80001302000BC000030BD005F282000680837
:1000B800BD006708BC00210039082000BA002100F3
:1000C80038082000B9003008BE003108BF003208E7
:1000D800C0003308C1003408C2003508C300360820
:1000E800C4003708C5001F30C6000030C700210013
:1000F800E501DC28FF302000C607FF30C73D460871
:10010800C63E860087010A30A000A101A201A30112
:10011800A401A501A601A7013E08A8003F08A9005F
:100128004008AA004108AB004208AC004308AD00F3
:100138004408AE004508AF0082312F2280312000EC
:100148002008303E8100FF30BC07FF30BD3DFF3046
:10015800B907FF30BA3D0A30A000A101A201A301EE
:10016800A401A501A601A7013E08A8003F08A9000F
:100178004008AA004108AB004208AC004308AD00A3
:100188004408AE004508AF008131AB218031200022
:100198002008BE002108BF002208C0002308C100B3
:1001A8002408C2002508C3002608C4002708C50083
:1001B8002000460847040319E228E328FC283E08E3
:1001C8003F04400441044204430444044504031D1D
:1001D800EE28EF287E283D08803AB80080303802A3
:1001E800031DF82801303C020318FB28FC287E2850
:1001F80020004608C63EA7003A08A9003908A8000A
:100208003B0883318D23803108002000D600480840
:1002180086008701403FCA00413FCB004A0884005E
:100228004B0885001200253A031D1B291C29922919
:100238004808860087010130810741310318810A87
:100248002100B801B9010310003003180130200063
:10025800E900FF30E700FF30E80048088600870122
:10026800403FD700413FD800570884005808850010
:100278001200753A031D4129422988294908860038
:10028800870101088400850102308107003FCE0004
:10029800013FCF00D001D101D201D301D401D50152
:1002A8005708013ECA000030583DCB004808860078
:1002B80087014A08C03F4B08C13F77294E08B00064
:1002C8004F08B1005008B2005108B3005208B400FA
:1002D8005308B5005408B6005508B70056088031D1
:1002E80045208131AA29570884005808850000084C
:1002F800CA00CB014B08003A0319832988294A0808
:10030800753A031962298829200048088600870160
:100318000130810741310318810AAA29480886005B
:100328008701403FCA00413FCB004A0884004B0880
:1003380085000008CC00CD014C08F4004D08F500FC
:100348005608F6008231A0228131882908007230CF
:100358008600003087000830F10000301E00F10BE5
:10036800B22920002008210422042304240425049F
:10037800260427040319C129C2291E2AFA01FA0AE8
:10038800D129A035A10DA20DA30DA40DA50DA60D73
:10039800A70D0130F1007108FA07A71FD429D52944
:1003A800C529F235F30DF40DF50DF60DF70DF80D21
:1003B800F90D27082F02031DFB2926082E02031D0D
:1003C800FB2925082D02031DFB2924082C02031DE7
:1003D800FB2923082B02031DFB2922082A02031DDF
:1003E800FB2921082902031DFB2920082802031CD8
:1003F800FE29FF29102A2008A8022108A93B220863
:10040800AA3B2308AB3B2408AC3B2508AD3B260898
:10041800AE3B2708AF3B7214A736A60CA50CA40C5C
:10042800A30CA20CA10CA00C0130FA02031D1D2A7A
:100438001E2AD5297208A0007308A1007408A2001A
:100448007508A3007608A4007708A5007808A60018
:100458007908A700080020002008210422042304AA
:10046800240425042604270403193B2A3C2A8F2A3E
:10047800F201F20A4B2AA035A10DA20DA30DA40D7D
:10048800A50DA60DA70D0130F1007108F207A71FF1
:100498004E2A4F2A3F2A27082F02031D6D2A2608B5
:1004A8002E02031D6D2A25082D02031D6D2A24081E
:1004B8002C02031D6D2A23082B02031D6D2A220816
:1004C8002A02031D6D2A21082902031D6D2A20080E
:1004D8002802031C702A712A812A2008A8022108F0
:1004E800A93B2208AA3B2308AB3B2408AC3B2508C0
:1004F800AD3B2608AE3B2708AF3BA736A60CA50C9C
:10050800A40CA30CA20CA10CA00C0130F202031D38
:100518008E2A8F2A4F2A2808A0002908A1002A0815
:10052800A2002B08A3002C08A4002D08A5002E0863
:10053800A6002F08A700080076080319A42AA52AF0
:10054800AA2A7608031DA92AAA2AAF2A7408843180
:10055800D4248231E02A7608083E860087011600F6
:1005680001040319B82AB92AD72A7608083E860052
:100578008701403FF700413FF8007608023E8600B9
:100588008701403FF900413FFA007A08803AFB00B2
:100598007808803A7B02031DD32A7708790203186A
:1005A800D62AD72AE02A7608023E8600870101303B
:1005B800810741310318810A0800210091121E3079
:1005C800F1000330F2008431E0248231210011125D
:1005D8000E30F1000430F2008431DA248231083020
:1005E80023009F0090309D0024309E0044309B00E3
:1005F8009C010930F1000530F2008431EC2482318D
:100608000130F1000530F2008431E62482310530F2
:10061800F1000530F2008431F22482312000EA0131
:10062800EF01EE010830ED00FC01EC01EB012100C7
:10063800911608007C08A03E8600870181012300EE
:100648001D1D272B282B332B7C08A03E86008701F5
:100658008114210041088A0040080A0083312300E0
:100668009D1C372B382B432B7C08A03E8600870126
:10067800011521003F088A003E080A0083317C08E2
:10068800A03E86008701010803194B2B4C2B532BE6
:1006980021003D088A003C080A008331562B84312A
:1006A80083248331080022008C018D018E010830DB
:1006B80021009000FF308C00FF308D00EF308E005D
:1006C8008C3023008E002F308D003F308C002400AA
:1006D80090018D018C018E012100971725008C0156
:1006E8008D018E01FF3026008C00FF308D00FF3019
:1006F8008E003F3027008C00F0308D00FF308E00D8
:1007080015303C00BD000C30B90024303D00A40079
:1007180008002000AF00A91B922B932B982B2908C7
:10072800AE002808AD009A2BAD01AE01AB01AC01BB
:10073800AC2B2030F4000030F50020002F08F60024
:100748008231A022833101302000AB070030AC3D5C
:100758002C08803AAA002E08803A2A02031DB62BDC
:100768002D082B02031CB92BBA2B9D2B20002F0818
:10077800A00027088331EA2383310800F200200013
:100788006D080319C82BC92BC32B2100111ACD2BB7
:10079800CE2BD22B720823009A00E72B11122000CF
:1007A8006F08B03E86008701720881000130F100B1
:1007B8007108EF0708306F02031CE32BE42BE52BCD
:1007C800EF010130ED022100111608002000A300FE
:1007D800A501A601002C2408A100A2012108F4000B
:1007E8002208F5002008F6008231A022833101306A
:1007F8002000A5070030A63D25082307A1002108F1
:10080800860087010108A4002408031D0C2C0D2C68
:10081800EF2B0800083020006D020318142C152C4B
:100828002D2C6E08B03E86008701010823009A002F
:100838000130F00070082000EE0708306E02031C3B
:10084800262C272C282CEE010130F0007008ED072B
:100858002F2C21001112080084319B2484318B171E
:100868000B17003084316824843172082000E600B8
:100878007108E500F830E0008430E1006608E30024
:100888006508E2008431AB248431352C80312E2870
:100898002000DD005A08DF005908DE005B2C5E30BE
:1008A800C8005B08C9005D08813109218431200036
:1008B8005E0884005F0885001200031D642C652C07
:1008C800532CD901DA010800F4007408F300F30D81
:1008D800F30D2900100873060339730690001014ED
:1008E8000D30890B752C00002900901490187D2C70
:1008F8007E2C7A2C0F08F2000E08F10008007C0804
:10090800A83E860087012300190881000130F00005
:100918007008FC0708307C02031C932C942C952C3F
:10092800FC010130F00070082000EB07080083315B
:10093800572384318431B92484318431FD248431AE
:100948008431C52484318231E12284310800623047
:100958002000E4006108DA006008D9006430DB0098
:10096800003084314C2484310800703021009B0011
:1009780080309C009A019D011C1FC32CC42CC02CE4
:100988000800A0302900910092018E018F010130EA
:1009980090000800640080010131890BCF2C0034DD
:1009A800F30073088331C2238431080072082100E0
:1009B800C5007108C400080072082100C30071084E
:1009C800C200080072082100BF007108BE000800BC
:1009D80072082100C1007108C000080072082100D7
:1009E800BD007108BC0008000A34253475340D3484
:1009F8000034163021009900080023001D121D162E
:0C0A0800080084318324853108000800B8
:020000040001F9
:08000000FF3FFF3FFF3FFF3F00
:04000E00E43FFF1FAD
:00000001FF
